:020000040800F2
:10000000000002208D070008890700083545000818
:100010008907000889070008890700080000000018
:100020000000000000000000000000008907000838
:10003000890700080000000089070008254500081E
:100040008907000889070008890700088907000850
:100050008907000889070008890700088907000840
:10006000890700088907000889070008751C00082F
:10007000811C0008CD3000088D1C0008991C000868
:1000800089070008A53500088907000889070008C6
:100090008907000889070008890700088907000800
:1000A00089070008890700088907000889070008F0
:1000B000890700088907000889070008C935000872
:1000C00089070008D5350008890700088907000856
:1000D00089070008890700088907000889070008C0
:1000E0008907000889070008000000008907000848
:1000F00089070008890700088907000889070008A0
:10010000890700088907000889070008890700088F
:10011000890700088907000889070008890700087F
:10012000890700088907000889070008890700086F
:10013000890700088907000889070008890700085F
:1001400000000000000000000000000000000000AF
:10015000890700088907000889070008890700083F
:10016000E135000889070008192900082529000839
:100170008907000831290008890700088907000855
:10018000890700088907000889070008890700080F
:1001900089070008890700088907000889070008FF
:1001A00089070008890700088907000889070008EF
:1001B000D13B000889070008890700088907000863
:1001C00089070008890700083D2900084929000817
:1001D00089070008552900088907000889070008D1
:1001E00089070008890700088907000889070008AF
:1001F000890700088907000889070008890700089F
:10020000890700088907000889070008890700088E
:10021000890700088907000889070008890700087E
:100220008907000889070008890700080000000006
:1002300089070008890700080000000089070008F6
:10024000890700088907000889070008890700084E
:10025000890700088907000889070008890700083E
:10026000890700088907000889070008890700082E
:1002700089070008890700088907000800000000B6
:1002800089070008890700088907000800000000A6
:080290000000000089070008CE
:1002A00010B5054C237833B9044B13B10448AFF3B0
:1002B00000800123237010BDB00300240000000063
:1002C0007828010808B5034B1BB103490348AFF375
:1002D000008008BD00000000B40300247828010855
:1002E00001F0FF01102A2BDB10F0070F08D010F8E7
:1002F000013B013A8B422DD010F0070F42B3F6D1EB
:10030000F0B441EA012141EA014122F007047FF003
:1003100000070023F0E80256083C85EA010586EA5A
:10032000010685FA47F5A3FA87F586FA47F6A5FA96
:1003300087F68EB9EED1F0BC01F0FF0102F00702A2
:1003400032B110F8013B013A83EA010313B1F8D14D
:100350000020704701387047002D06BF354603382E
:10036000073815F0010F07D1013015F4807F02BF67
:10037000013015F4C03F0130F0BC0138704700BFB8
:10038000034613F8012B002AFBD1181A01387047D5
:1003900081F0004102E000BF83F0004330B54FEA36
:1003A00041044FEA430594EA050F08BF90EA020FA3
:1003B0001FBF54EA000C55EA020C7FEA645C7FEA36
:1003C000655C00F0E2804FEA5454D4EB5555B8BF59
:1003D0006D420CDD2C4480EA020281EA030382EACA
:1003E000000083EA010180EA020281EA0303362D5C
:1003F00088BF30BD11F0004F4FEA01314FF4801C2F
:100400004CEA113102D0404261EB410113F0004F40
:100410004FEA03334CEA133302D0524263EB4303F7
:1004200094EA050F00F0A780A4F10104D5F1200E95
:100430000DDB02FA0EFC22FA05F2801841F10001F0
:1004400003FA0EF2801843FA05F359410EE0A5F1C4
:1004500020050EF1200E012A03FA0EFC28BF4CF0F5
:10046000020C43FA05F3C01851EBE37101F00045AB
:1004700007D54FF0000EDCF1000C7EEB00006EEBB8
:100480000101B1F5801F1BD3B1F5001F0CD3490842
:100490005FEA30004FEA3C0C04F101044FEA445299
:1004A00012F5800F80F09A80BCF1004F08BF5FEA20
:1004B000500C50F1000041EB045141EA050130BD00
:1004C0005FEA4C0C404141EB0101013C28BFB1F512
:1004D000801FE9D291F0000F04BF01460020B1FA5D
:1004E00081F308BF2033A3F10B03B3F120020CDA30
:1004F0000C3208DD02F1140CC2F10C0201FA0CF00E
:1005000021FA02F10CE002F11402D8BFC2F1200C72
:1005100001FA02F120FA0CFCDCBF41EA0C01904028
:10052000E41AA2BF01EB0451294330BD6FEA040471
:100530001F3C1CDA0C340EDC04F11404C4F120025C
:1005400020FA04F001FA02F340EA030021FA04F36E
:1005500045EA030130BDC4F10C04C4F1200220FAC5
:1005600002F001FA04F340EA0300294630BD21FA03
:1005700004F0294630BD94F0000F83F4801306BFC9
:1005800081F480110134013D4EE77FEA645C18BFBD
:100590007FEA655C29D094EA050F08BF90EA020F54
:1005A00005D054EA000C04BF1946104630BD91EA4C
:1005B000030F1EBF0021002030BD5FEA545C05D14F
:1005C0004000494128BF41F0004130BD14F580048E
:1005D0003CBF01F5801130BD01F0004545F0FE4102
:1005E00041F470014FF0000030BD7FEA645C1ABF37
:1005F000194610467FEA655C1CBF0B46024650EA6E
:10060000013406BF52EA033591EA030F41F4002199
:1006100030BD00BF90F0000F04BF0021704730B51F
:100620004FF4806404F132044FF000054FF00001F4
:1006300050E700BF90F0000F04BF0021704730B5B5
:100640004FF4806404F1320410F0004548BF40428A
:100650004FF000013EE700BF42004FEAE2014FEADF
:1006600031014FEA02701FBF12F07F4393F07F4FBA
:1006700081F06051704732F07F4208BF704793F0BD
:100680007F4F04BF41F40021704730B54FF46074D0
:1006900001F0004521F000411CE700BF50EA0102D3
:1006A00008BF704730B54FF000050AE050EA01027C
:1006B00008BF704730B511F0004502D5404261EBEC
:1006C00041014FF4806404F132045FEA915C3FF42D
:1006D000D8AE4FF003025FEADC0C18BF03325FEACA
:1006E000DC0C18BF033202EBDC02C2F1200300FA7B
:1006F00003FC20FA02F001FA03FE40EA0E0021FAA0
:1007000002F11444BDE600BF30B4194C0022194B6D
:10071000D4F88810184841F47001184DC4F88810B6
:100720001C68174944F001041C601A611C682040D1
:1007300018609A61DA611A629A62DA621A635A631D
:100740009A63DA631A645A64186820F48020186087
:100750001A662B681940B1F1005F02D2094B0122E1
:100760001A60034B4FF0006230BC9A60704700BFC4
:1007700000ED00E0004402587FEDF6EA0010005C56
:100780000000FFFF08810051FEE700BF0D4B0E4A3D
:10079000934206D00D4951F8040B43F8040B9342E1
:1007A000F9D10B4B0B4A934204D0002143F8041BB0
:1007B0009342FBD1FFF7A8FF0EF070FA00F028F982
:1007C000FEE700BF00000024AC0300248C280108D1
:1007D000B003002454E90624704700BF704700BFEF
:1007E000704700BF704700BF704700BF704700BF31
:1007F000704700BF704700BF0B6873B1421E30B432
:10080000064C134612F8015F023304F8015B0D68D1
:100810001B1A9D42F5D830BC70477047F0950624EE
:100820002DE9F04F8B4692462DED028B87B0002AC2
:100830007AD002F1FF380C460025414F28F001081C
:10084000404E0DF114094048083401F053FF3F4871
:10085000B0EE408A0CF004FEF0EE408A3C4801F015
:1008600049FF3C4868EE808A01F044FF3448A8EE16
:10087000808AB0EE480A87ED028A0DF0B9F8364852
:1008800087ED060A01F036FF3448B0EE408A0CF0DE
:10089000E7FDF0EE408A324801F02CFF314868EE67
:1008A000808A01F027FF2748A8EE808AB0EE480A28
:1008B00086ED028A0DF09CF8214886ED060A0CF0C0
:1008C000D3FE20488DED030A0CF0CEFEDDED037A59
:1008D000254830EE270A8DED030A0CF02BFE03AA03
:1008E00004AB22481146CDF800908DED030A0DF0BF
:1008F000C7F91F4801F0FEFEDDED037A9DED047A95
:10090000454577EEC07ADDED056A05F10205B0EEEA
:10091000676ACDED037AE6EE807AA7EE006A44EDD1
:10092000017A04ED026A8ED1B7EE000A52465946AA
:1009300010480CF01FFE07B0BDEC028BBDE8F08F35
:10094000A8090024CC09002434040024000A00244F
:10095000CC030024D0040024680400244C4A002462
:100960000004002404050024F0090024A88A0024BF
:1009700038050024EC95062430B50B46084D83B0AD
:10098000144601461A46284601F06CFE0122054B2A
:100990002846216800920CCB01F044FE03B030BD24
:1009A000C4050024BC00002470B5054682B00E4684
:1009B00002B141B3941B0F2C019411D8012C28686B
:1009C00008D1337803700023019C28686C600355BC
:1009D00002B070BD64B900236C60035502B070BDF5
:1009E000002201A928460DF0D1FA019B2860AB60D6
:1009F000224631460EF086F9019C286800236C607F
:100A0000035502B070BD01480DF0BAFADC170108B9
:100A10002DE9F04FC1484FF07C5BDFF8A4A3C04F35
:100A2000C04EC14C2DED068B89B0B7EE009A00F098
:100A300065FA0021BD4801AD01F0CCFE0022BC49A1
:100A40000DF10C09B948904601F04AFFB34800F097
:100A5000A1FCB0EE408ADFEDB79AB748F0EE480A45
:100A6000DFEDB68AB0EE690A0CF0E2FD89EE08AA65
:100A700050468AED038ACAED029ACAF804B0CAED5C
:100A8000058AB0EE690A8AED04AA0CF0B1FFF0EE17
:100A9000407AAB48B0EE480A8AF80080CAED067A80
:100AA0000CF046FB3846B0EE690A87ED04AA87EDE4
:100AB000038AC7ED029AC7F804B0C7ED058A0CF0A7
:100AC00097FFF0EE407A9F48B0EE480A87F8008022
:100AD000C7ED067A0CF02CFBB0EE490ADFED9A0A5E
:100AE0000FCE0FC596E8070006F10C0785E8070052
:100AF00001A90122954801F0C7FD0DF1040CB0EEEB
:100B0000490ADFED910A0FCFACE80F0097E8070024
:100B100006F1280785E8070001A901228C4801F0A9
:100B2000B3FD0DF1040CB0EE680AF2EE040A0FCF2B
:100B3000ACE80F0097E8070006F1440785E80700D6
:100B400001A90122834801F09FFD0DF1040CB0EED4
:100B5000490ADFED7D0A0FCFACE80F0097E80700E8
:100B600006F1600785E8070001A901227A4801F033
:100B70008BFD0DF1040CB0EE490ADFED730A0FCFC7
:100B8000ACE80F0097E8070006F17C0785E807004E
:100B900001A90122714801F077FD0DF1040CB0EEBE
:100BA000680AF2EE040A0FCFACE80F0097E80700DE
:100BB00006F1980785E8070001A90122684801F0BD
:100BC00063FD68480CF0ACFC0DF1040CF0EE690A12
:100BD000B0EE680A0FCFACE80F0097E8070085E891
:100BE0000700424601A9604806F1B40701F04CFD38
:100BF000B0EE480A20460CF087FF5C4A5C4B0DF1D2
:100C0000040C2260F0EE490A6360B0EE680A0FCF70
:100C1000ACE80F0097E8070085E80700424601A905
:100C2000544801F031FD54480CF0A0FC5349A6F59E
:100C3000397000F007FBA6F5297002F0CDF94146A6
:100C4000A6F5237001F026FA4D4A01A84FF00003E3
:100C5000D11FCDF80490FFF7A7FE404601AA4146F8
:100C6000FFF78AFE0198484501D00DF084F9454808
:100C700001F01AFA444A4FF0000301A8A2F10E0154
:100C8000CDF80490FFF790FE002001AA0A21FFF79B
:100C900073FE0198484501D00DF06DF939483B4F7E
:100CA0003B4E304D01F000FA1E4801F0C5F93948BD
:100CB00001F0C2F9384801F0BFF9384801F0BCF939
:100CC000374801F0B9F9374801F0B6F9364801F074
:100CD000B3F9364801F0B0F9354801F0ADF93548BF
:100CE00001F0AAF9344801F0A7F9344801F0A4F959
:100CF000174801F0FFFC194887ED000A01F0FAFCE3
:100D0000194886ED000A01F0F5FC1A4885ED000A45
:100D100001F0F0FC84ED000AC6E700BF6C0500247A
:100D2000CC09002440080024A88A0024BA05002425
:100D3000F90700080000C842988A0024000000005B
:100D4000000A00244C4A00240080BB4534040024DF
:100D5000D0040024CC0300246804002404050024EB
:100D600000040024F00900249C040024CDCC4C3E57
:100D700000A08C4638050024EC95062421080008C4
:100D80002B180108C40500243A180108204A002441
:100D90006C8A00245C08002478080024940800244D
:100DA000B0080024CC080024E8080024040900242A
:100DB000200900243C090024580900247409002457
:100DC000A8090024F8B50023314D324C4FF40072CD
:100DD0006B6605F17A0030490DF094FF2F4F2246E3
:100DE00028462F490DF0C2F822462E492E480DF014
:100DF000BDF82E4E224639462D480DF0B7F8224652
:100E000039462C482C4D0DF0B1F8224631462B487E
:100E10000DF0ACF82246314629480DF0A7F82246DD
:100E2000294628480DF0A2F82246294626480DF00A
:100E30009DF82246294625480DF098F82246294675
:100E400023480DF093F82246294622480DF08EF8EB
:100E50002246294620480DF089F822461F4920489D
:100E60000DF084F8224629461E480DF07FF82246F0
:100E70001D491E480DF07AF8224629461C480DF0FF
:100E800075F822461B491C48BDE8F8400DF06EB8C5
:100E90006C0500240000002494150108E9070008EF
:100EA000F5070008E5070008988A0024D90700081C
:100EB000A8090024CC090024F1070008000A002436
:100EC0004C4A002434040024D0040024CC03002421
:100ED000680400240405002400040024ED07000831
:100EE000A88A002438050024DD070008F009002442
:100EF0009C040024E1070008EC9506242DE9F04746
:100F000004462DED028BACB000F0AAF9204600F0AB
:100F100005FA204600F03EFA302184ED9F0A204673
:100F2000C4F884120CAE00F03BFAD4EDA17AD4EDF3
:100F30009F6A0DAFF8EE677ABC4B16AD86EEA77AC6
:100F400093E803000C9020468DF834101E2184EDA8
:100F5000A07A00F0FFF9034694EDA00A04F5227090
:100F6000ADF85830169901F017FC1D21204600F00D
:100F7000F1F9034694EDA00A04F52670ADF8583057
:100F8000169901F009FC16F8011B204600F0E2F961
:100F9000034628461135ADF81030049901F0E0FC05
:100FA000B742F0D11021204600F0D4F903461521B4
:100FB0002046ADF8143000F0CDF903461421204648
:100FC00004F14008ADF8183000F0C4F903461321CD
:100FD000204604F53575ADF81C3000F0BBF9BDF8BE
:100FE0001C100646069B082227A8ADF80010ADF895
:100FF00004600599ADF820608D4E01F0BFFC16A984
:1010000040460423052201F0F3FC0DF1380C9FED5E
:10101000898A0FCEACE80F0096E80F0004F56D76D4
:101020008CE80F0057F8042F04214046D2B201F09B
:10103000F9FF0023014628461C35F0EE480A1A46FF
:1010400094EDA00A00F0BCFFAE42EBD1354600267D
:10105000F1B24046013601F0DBFF94EDA00A0146F3
:1010600028461C3500F0C6FF042EF1D11B21204676
:1010700000F070F903461C212046A4F8A83200278E
:1010800000F068F903461A212046A4F8AA3204F1B8
:10109000640500F05FF940F20123024604F52A706E
:1010A000A4F8B032A4F8AC2200F0F4FA09212046EA
:1010B000614E00F04FF90B230AA9ADF8280004F1A6
:1010C0005800ADF82A3001F035F85C490BA80B97B1
:1010D00002F08CFA06F184030B98FF22E36639468E
:1010E000574B062784F878202367C4E9190600E0E7
:1010F000A66E0A1101F00F008B00013102EB821283
:101100009BB22029B75402EB8000D4E91A6C064444
:10111000A6F80130A6F803300CF80270E26E024423
:10112000A2F80130A2F80330E2D194F872300B2B10
:101130000FD0B4F87220012304F17400A4F87420D5
:10114000A4F87630039002F0B1F80398002102F081
:10115000D9F804F1700704F1720A4FF0000817F88B
:10116000011B0126022309AA41F0400128460096EE
:101170004FF000090391ADF8248002F095FA142095
:1011800003F0ECF80399022309AA28460096ADF86B
:10119000248002F089FA142003F0E0F84FF40050A4
:1011A0000399022309AAADF824000096284602F00C
:1011B0007BFA142003F0D2F8052343F2016C039963
:1011C000009309AA02232846ADF824C002F06CFA65
:1011D0005745C4D10021204600F0BCF8034609A9B8
:1011E00004F15D00ADF8243000F04AFF0F212046E5
:1011F00084F85B6084F85C9000F0ACF8034604F17E
:1012000059001BB2C3F3072284F8593084F85A20DE
:1012100002F04CF804F14800032101F0B9FF03F09B
:1012200097F82CB0BDEC028BBDE8F0873C180108A4
:10123000941701086F12033B0000003044180108A6
:1012400000020B0000F09CB8044B06221A7083F8D1
:10125000412083F8842083F8C520704700000030C7
:10126000F8B504464FF48073244E0321A38340F65F
:101270000337234B234AC4F8293003F10073224D6E
:1012800003F54073214826600626C4F82D30204B14
:10129000626004F11C02A5600125E060002084F872
:1012A00027103021C4F831301A4BA261C4F8353010
:1012B000E57784F8215084F8230084F825006161E3
:1012C000C4F83970267400F0DBFD28463021124D39
:1012D00000F0D6FD4FF4A060022140F207124FF457
:1012E000877384F85360A564A4F84C0084F84F1009
:1012F000A4F85020A4F85430F8BD00BF0007050042
:1013000004020404010508050905070506050A0687
:1013100004030001060900020001000410B50446A0
:1013200003F00AF9204600F03FF8E01C02F0D6F97D
:1013300004F14F0001F0BAFF04F1530001F0B6FFD1
:1013400004F1140000F0AEFC02F0CAFFBDE810404A
:1013500002F0FEBF1F2982B009D8084B03EB4102FF
:1013600013F81130507843EA002002B0704701238F
:101370000C2043EA002002B0704700BF501801085B
:10138000002008B500F06CFD0020BDE8084000F02A
:101390008DBD00BF9FED010A704700BF008E3B4727
:1013A000002000F06DBD00BF2DE9F043444C8BB030
:1013B000A063037823B1002528460BB0BDE8F08375
:1013C000404A0A230026012762600822089320234E
:1013D00002A9201DC4E90267C4E9042340264FF492
:1013E000C07700224FF40063C4E90667C4E908230C
:1013F0004FF48056002702220723C4E90A67CDE98B
:1014000002230426032200230827CDE90623CDE981
:10141000046709F059FD054600284CD14FF001083A
:101420004FF010090126002702A94FF480520190C5
:10143000201DCDE902894FF002084FF01009CDE9D7
:10144000046709F06BFD642003F0ACFD02A94FF4C2
:101450008052201DCDE90467CDE9028904264FF0B2
:1014600003084FF01009002709F058FD02A94FF4B6
:101470008052201DCDE90467CDE9028909F04EFDB7
:1014800040F232234FF0010C042601931027019BF8
:1014900002A94FF48052201DCDE904C3CDE90267B3
:1014A00009F03CFD201D40F6060109F057FD2846D5
:1014B0000BB0BDE8F083012528460BB0BDE8F083F2
:1014C000F899062440410052694A2DE9F043156815
:1014D0008FB015B10FB0BDE8F083664B01210C242D
:1014E000002611600327D3F8D4204FF683784FF0FD
:1014F000020908A942F480525F48C3F8D420D3F807
:10150000D42002F480520092009AD3F8E02042F0F6
:101510001002C3F8E020D3F8E02002F0100201929C
:10152000019AD3F8E02042F04002C3F8E020D3F85B
:10153000E02002F040020292029AD3F8E02042F04A
:101540000802C3F8E020D3F8E02002F0080203927A
:10155000039AD3F8E02042F48072C3F8E020D3F875
:10156000E02002F480720492049AD3F8E02042F062
:101570008002C3F8E020D3F8E02002F08002059258
:10158000059AD3F8E02042F02002C3F8E020D3F817
:10159000E02002F020020692069AD3F8E02042F002
:1015A0000402C3F8E020D3F8E0300C9403F0040305
:1015B0000793079BCDE90A67CDE9088905F0BAFBD7
:1015C00048F23712022308A92C480C94DFF8C08097
:1015D000CDE90A67CDE9082305F0ACFB4CF20372B4
:1015E000022308A926480C94CDE90A67CDE908230F
:1015F00005F0A0FB40F2FF62022308A921480C94E9
:10160000CDE90A67CDE9082305F094FB4FF60C728B
:10161000022308A91C480C94CDE90A67CDE90823E8
:1016200005F088FB4FF63F02022308A917480C94E7
:10163000CDE90823CDE90A6705F07CFBD8F838002E
:10164000013003F037FCD8F838300646581C03F058
:1016500039FC02220746032308A930460C94089758
:101660000B93CDE9092505F065FB0FB0BDE8F083CC
:10167000F09906240044025800100258001802583D
:10168000000C025800200258001C02580014025896
:10169000F899062470B5044602780025012663787F
:1016A0000A30A272E3722673657301F0FFFDA2781F
:1016B000E37804F10E00A273E3732674657401F0FD
:1016C000F5FD6379227904F11200E37425756575DF
:1016D000A27401F0EBFD237AB34200D870BDA27969
:1016E00004F11600E37925766576A275E375BDE809
:1016F000704001F0DBBD00BF2DE9F04FD64F8DB03B
:10170000DFF86CB3BB6807F11006D7F810580BF57B
:1017100082640BF1100207F5826903EB800E0694D8
:1017200083000A9204EB8508DBF8084006EB850C81
:10173000039302EB850197F81C3809EB850ACDF875
:101740001C8004EB80000B91CDE9086CCDE9049A74
:10175000002B00F0DA80012B40F0C480002D00F057
:1017600066810B4600240EF1040900F10408DFED48
:10177000BB5A71460295019351F8343059F83450F0
:1017800083F4000E50F8343085F4000583F4000A29
:10179000AEF5000306EE103A58F83430AAF5000A08
:1017A000013483F4000EA5F5000306EE90AAB8EE0E
:1017B000C66A07EE103AAEF50003F8EEE66A07EEE9
:1017C000903AB8EEC77A019B26EE256AF8EEE77AE2
:1017D00066EEA56A27EE257AA6EC016A67EEA57A81
:1017E000E2EC016AACEC017AE3EC017A0193029B32
:1017F000A342C1D11D467B682A4604A908A8984780
:10180000039ADBF80C00F96897F81C38104411446F
:10181000002B00F0B180012B5DD1DDF810A000237A
:10182000DDF81C900E1DDDF81880041DDDF814E0B5
:101830009FED8B7ADFF83CC2DFED8A6A8A4F3BE08E
:10184000F4EEE67AF1EE10FAC0F22B813A46FEECA5
:10185000017A41F83320F4EEC77AF1EE10FA3FD95D
:10186000F4EEE67AF1EE10FAC0F222813A46F8EC94
:10187000017A46F83320F4EEC77AF1EE10FA2DD94A
:10188000F4EEE67AF1EE10FAC0F219813A46F9EC7C
:10189000017A40F83320F4EEC77AF1EE10FA14D949
:1018A000F4EEE67AF1EE10FAC0F2C7803A4644F858
:1018B000332001339D420ED9FAEC017AF4EEC77A57
:1018C000F1EE10FABCD86246C1E7624644F8332014
:1018D00001339D42F0D80DB0BDE8F08F6246D6E7E7
:1018E0006246C4E77B682A4604A908A89847039A79
:1018F000DBF80C00F96897F81C3810441144CBB39E
:10190000012BE8D1002D88D1E5E7002D00F08F8074
:101910000EF1040900F10408DFED545A3EF933409A
:1019200006EE104A30F9334006EE904A39F933405A
:10193000B8EEC66A07EE104A38F93340F8EEE66AA8
:10194000013307EE904AB8EEC77A26EE256A9D422B
:10195000F8EEE77A66EEA56A27EE257AA6EC016A2C
:1019600067EEA57AE2EC016AACEC017AE1EC017A6F
:10197000D4D140E7002DAED0DDF810A00023DDF873
:101980001C900E1DDDF81880041DDDF814E09FED9D
:10199000347ADFF8E0C0DFED336A334F38E0F4EE3D
:1019A000E67AF1EE10FA4FDB3A46FEEC017A41F8A6
:1019B0003320F4EEC77AF1EE10FA36D9F4EEE67A77
:1019C000F1EE10FA58DB3A46F8EC017A46F833208B
:1019D000F4EEC77AF1EE10FA25D9F4EEE67AF1EEDC
:1019E00010FA50DB3A46F9EC017A40F83320F4EE75
:1019F000C77AF1EE10FA14D9F4EEE67AF1EE10FAA5
:101A000048DB3A4644F8332001339D427FF663AF0A
:101A1000FAEC017AF4EEC77AF1EE10FABFD862461A
:101A2000C3E76246EEE76246DDE76246CCE77B68E5
:101A30002A4604A908A898474DE7B0EE676ABEEEAB
:101A4000E46A16EE102A32E7B0EE676ABEEEE46A88
:101A500016EE102AA9E700BF349A062400000034CD
:101A600004FF7FBF04FF7F3F82FF7F00000000383C
:101A700058A206247E0080FFB0EE676ABEEEE46ADC
:101A800016EE102AA0E7B0EE676ABEEEE46A16EE24
:101A9000102AA8E7B0EE676ABEEEE46A16EE102AD6
:101AA000B0E7B0EE676ABEEEE46A16EE102ACEE644
:101AB000B0EE676ABEEEE46A16EE102AD7E6B0EE24
:101AC000676ABEEEE46A16EE102AE0E60B46920064
:101AD000014618460DF016B9F8B5044601220F4626
:101AE00058484FF4804105F017FB2368564A93424B
:101AF00063D02032934260D0544DD5F8184805F198
:101B0000100095F81C28BE00AB686408012A03EB9E
:101B1000870100EB840452D0A0420FD002469FED13
:101B20004C7A51F8043B1BB207EE903AF8EEE77A94
:101B300067EE877AE2EC017A9442F2D105F582648D
:101B400095F81E78D5F8102821462B6802FB07F27D
:101B50009847D5F8182895F81C18EB685208012901
:101B6000334404EB820240D094421ED09FED397A78
:101B70003948DFED3A6A9FED3A6A08E0F4EEE67A1A
:101B8000F1EE10FA55DBA24243F8041B0DD0F4EC41
:101B9000017A47F6FE71F4EEC77AF1EE10FAEDD84D
:101BA0000146A24243F8041BF1D100224FF48041C8
:101BB0002448BDE8F84005F0AFBA2A4D9DE7A042A1
:101BC000BCD002469FED287A51F8043B83F4000311
:101BD000A3F5000307EE903AF8EEE77A67EE877A0E
:101BE000E2EC017A9442EFD1A8E79442DDD0043BC5
:101BF0009FED187A1D4DDFED196A1D4808E0F4EEDF
:101C0000E67AF1EE10FA0DDBA24243F8041FCCD0C5
:101C1000F4EC017A0146F4EEC77AF1EE10FAEED850
:101C20002946F1E7B0EE676ABEEEE46A16EE101AD6
:101C3000EAE767EE867AFDEEE77A17EE901A09B2C8
:101C4000A1E700BF001802580458014058A206241A
:101C50000000003804FF7FBF0280FFFF04FF7F3FCA
:101C600000FEFF46349A0624000000347E0080FF08
:101C700082FF7F00014804F0FDBC00BF2CBD06249C
:101C8000014804F0F7BC00BFA4BD0624014804F0DD
:101C9000F1BC00BF1CBE0624014804F0EBBC00BF31
:101CA00084BB0624D0E900232DE9F041802A614C51
:101CB000614D86B028BF8022C4F82008C5F82008EE
:101CC00018461E78DF7A93F80C80C4F81028C5F8FF
:101CD0001028DA78594984F81C281B79216029607A
:101CE00085F81C3802F008F855484FF0020C5549A9
:101CF00016F0FD0F00F5006ED4F81028D5F8103856
:101D000002FA0CF284F81EC803FA0CF385F81EC818
:101D1000C4F81828C5F81838C5E9020E01F50060A6
:101D2000C4E9020125D1032F84F81D7860D00F4645
:101D300000F2FF7340F6FE72DB1B934262D94FF450
:101D4000006200210CF0ECFF38464FF400620021E5
:101D50000CF0E6FF4FF4007200213B480CF0E0FF6E
:101D60004FF40072002139480CF0DAFF0023C4F868
:101D70001438731E012B10D9002635484FF48042C9
:101D8000012300240670694632480394CDE90023FC
:101D900004F0D0FF06B0BDE8F081A86840F6FE72FE
:101DA000EF6800F2FF7385F81D88DB1B934235D97D
:101DB0004FF4006200210CF0B3FF38464FF400628C
:101DC00000210CF0ADFF4FF4007200212248A6F173
:101DD00002060CF0A5FF4FF4007200211F480CF022
:101DE0009FFFB6FA86F600237609C4F81438C4E7D4
:101DF00040F60133ADF8003000980BF01DF9D4E93E
:101E0000020795E7031F3A1F00F2FC70002143F818
:101E1000041F834242F8041FF9D19BE7031F3A1FB6
:101E200000F2FC70002143F8041F984242F8041F9E
:101E3000F9D1C8E7349A062458A20624CD1A00081E
:101E40000811003008010030449A0624449E0624FC
:101E50007CAA06240018025868A2062468A6062454
:101E6000044B00221A7010B9034B19607047034BE2
:101E7000196070477CAA0624349A062458A20624C6
:101E800068B9084B802993F81E2828BF8021C3F821
:101E9000101801FB02F14900C3F818187047024BF3
:101EA000F0E700BF349A062458A2062410B5C0B942
:101EB000234CD4F82038B4F818285B685B7973B3E6
:101EC000E168204808F060FED4F82038B4F81828FB
:101ED0005B68DB7973BBA1681B48BDE8104008F064
:101EE000E5BE1A4CD4F82038B4F818285B689B7902
:101EF00083B1E168164808F047FED4F82038B4F8FA
:101F000018285B681B7A7BB9A1681248BDE81040AD
:101F100008F0CCBEA1680E4808F0C8FEEDE7A16845
:101F2000084808F0C3FECFE7E1680A48BDE8104062
:101F300008F02ABEE1680448BDE8104008F024BE5D
:101F4000349A062494BE062494BC062458A206247F
:101F5000FCBB0624ECBA0624084B1A78012A07D1E8
:101F60000368074A934206D02032934203D0704759
:101F70000021FFF7B1BD0020FFF7BEBB7CAA0624FD
:101F8000045801400B4B1A78012A07D103680A4A0A
:101F9000934209D02032934206D07047074BD3F8C2
:101FA00018184908FFF798BD044BD3F818084008E3
:101FB000FFF7A2BB7CAA062404580140349A0624E9
:101FC000B6EE007A016060EE200A0276F7EE007A43
:101FD000437680ED020A60EE870AC0ED047A87EE50
:101FE000A07A10B40024C46044615DF8044B80ED15
:101FF000017A7047DFED0F7AB6EE007AF7EE006AED
:102000004FF0804260EE277A4FF4807380ED057ABE
:10201000016067EE877A80ED020A0261038386EE33
:10202000A77A10B40024C4605DF8044B80ED017AF7
:10203000704700BF6F12033B0268037E128807EEF1
:10204000902AFBEEC87A1BB1B7EE007A77EE677A7A
:10205000D0ED056A90ED047A77EEE67A437E67EE7E
:10206000877A0BB1F1EE677A90ED030A90ED017A71
:1020700077EEC07AA7EE270A80ED030A704700BF0B
:10208000098800220180C0F8022001F00FB900BFCA
:10209000704700BF49424FF480620248C9B20CF059
:1020A0003FBE00BF80AA06242DE9F041DFF8808002
:1020B00082B0B0241C4E1D4D002130468DF80740E3
:1020C00001340F4601F01EF901220DF107012846E7
:1020D000E4B202F08FF8394630468DF8077001F00F
:1020E00011F901220DF10701284602F083F81023AF
:1020F000394630468DF8073001F004F901220DF120
:102100000701284602F076F80121304601F0FAF87E
:1021100041468022284602F06DF8B82C08F180086C
:10212000CAD102B0BDE8F08184AE062480AE062498
:1021300080AA06242DE9F0470D46C34E012482B043
:1021400035F8023B8146DFF810833046BF4F4FF031
:10215000200A3380B47001F0A9F82B88404600258E
:1021600088F80240A8F8003001F0A0F8384602F0E4
:1021700015F82946404601F0C5F80A2002F04CFA4D
:102180002146404601F0BEF80A2002F045FAAE238F
:10219000304629468DF8073001F0B4F8224638461B
:1021A0000DF1070102F026F8304629468DF807A008
:1021B00001F0A8F822460DF10701384602F01AF89E
:1021C000304629468DF8075001F09CF822460DF163
:1021D0000701384602F00EF8B023294630468DF844
:1021E000073001F08FF822460DF10701384602F062
:1021F00001F8C823294630468DF8073001F082F8EF
:1022000022460DF10701384601F0F4FF2946304619
:102210008DF8075001F076F822460DF10701384697
:1022200001F0E8FF1023294630468DF8073001F011
:1022300069F822460DF10701384601F0DBFF402323
:10224000294630468DF8073001F05CF822460DF142
:102250000701384601F0CEFF8123294630468DF82C
:10226000073001F04FF822460DF10701384601F022
:10227000C1FFFF23294630468DF8073001F042F8B0
:1022800022460DF10701384601F0B4FFA12329468B
:1022900030468DF8073001F035F822460DF1070180
:1022A000384601F0A7FFA623294630468DF80730AF
:1022B00001F028F822460DF10701384601F09AFF97
:1022C000A823294630468DF8073001F01BF8224636
:1022D0000DF10701384601F08DFF3F2329463046B6
:1022E0008DF8073001F00EF822460DF1070138464F
:1022F00001F080FFA423294630468DF8073001F015
:1023000001F822460DF10701384601F073FFD3238F
:10231000294630468DF8073000F0F4FF22460DF1D3
:102320000701384601F066FF294630468DF8075010
:1023300000F0E8FF22460DF10701384601F05AFF90
:10234000D523294630468DF8073000F0DBFF2246C2
:102350000DF10701384601F04DFFF02329463046C4
:102360008DF8073000F0CEFF22460DF10701384608
:1023700001F040FFD923294630468DF8073000F0A0
:10238000C1FF22460DF10701384601F033FF222339
:10239000294630468DF8073000F0B4FF22460DF193
:1023A0000701384601F026FFDA23294630468DF82A
:1023B000073000F0A7FF22460DF10701384601F073
:1023C00019FF1223294630468DF8073000F09AFF96
:1023D00022460DF10701384601F00CFFDB232946A8
:1023E00030468DF8073000F08DFF22460DF10701D1
:1023F000384601F0FFFE294630468DF807A000F070
:1024000081FF22460DF10701384601F0F3FEAF23AC
:10241000304629468DF8073000F074FF22460DF152
:102420000701384601F0E6FE29464FF4806208486D
:102430000CF076FC4846FFF737FE064B1D605C71DA
:1024400002B0BDE8F08700BF84AE062480AE06244B
:1024500080AA062488AE062490AE06242DE9F04F0B
:10246000A1F1200089B00491C1B208AD9DF84840A7
:102470005E2905E90C006AD8684A9DF81810B2F880
:1024800000E00EEB0103802B059360DC9DF81970D2
:102490005688F319402B5ADC002F51D05F4A07FBB6
:1024A00000F0079D6FF00043127907440344A5F143
:1024B000020C002A5FFA8EF084F0010205EB430E55
:1024C000039008BF23460CEB470018BF1346F6B233
:1024D0000CBF9246A246DFF848C1029001933EF835
:1024E000020F41B3012406F007073F2E4FEAD60240
:1024F00004FA07F7019C039B98BF00257FB288BFB1
:102500000125D2016FEA0708002C46D1BAF1000F6D
:1025100030D154465FEAD31903EB020706D12DB937
:102520001CF8079008EA09090CF8079001340133F8
:10253000A142DBB2EED1029B01367345F6B2CED199
:10254000364B059A04981A8009B0BDE8F08F002038
:1025500009B0BDE8F08F5FEAD31B06D12DB91CF896
:1025600009B047EA0B0B0CF809B001340133A14262
:10257000DBB2E0D000FA04F919F4004F03EB0209D2
:10258000E9D05FEAD31BF0D1002DEED11CF809B0E1
:1025900008EA0B0B0CF809B0E7E7BAF1000F23D1FA
:1025A00054460EE05FEAD31B06D12DB91CF809B0E2
:1025B00008EA0B0B0CF809B001340133A142DBB27D
:1025C000B9D000FA04F919F4004F03EB0209E9D07D
:1025D0005FEAD31BF0D1002DEED11CF809B047EA19
:1025E0000B0B0CF809B0E7E700245FEAD31903EB03
:1025F000020806D12DB91CF8089047EA09090CF821
:10260000089001340133A142DBB2EED1029B0136C6
:102610007345F6B27FF463AF92E700BF88AE06243D
:1026200080AA0624F0B585B00C46097802AD9DF865
:10263000287085E80C0081B1064602E014F8011FFD
:1026400059B10097304695E80C00FFF707FF237853
:102650009842F3D0184605B0F0BD0023184605B0E7
:10266000F0BD00BF014B19805A80704788AE062428
:10267000024A034903480BF079BC00BF0000002464
:102680009120000880AE06249FED197AF0EE407A82
:102690004B68B4EE470A70B504460868F1EE10FACC
:1026A0008E68CD682DED028B206048BFB0EE470AE2
:1026B0000869B0EE608A636084F830204B690A8B49
:1026C000206163612283C4ED077AC4ED080AA66025
:1026D000E5600BF059FEF0EE407AB0EE480AC4ED2A
:1026E000097A0BF051FE84ED0A0ABDEC028B70BD35
:1026F00095BFD63390F8303010B50446032B47D839
:10270000DFE803F015243502FFF796FC60EE006A5F
:10271000D4ED077A94ED087A66EE806A37EE677A30
:10272000E6EE877AB0EE670AC4ED0B7A10BDFFF7CC
:1027300083FCD4ED077A94ED087A37EE677AE0EE01
:10274000077AB0EE670AC4ED0B7A10BDFFF774FC90
:10275000D4ED077A94ED087A20EE000A37EE677A16
:10276000E0EE077AB0EE670AC4ED0B7A10BDFFF712
:1027700063FC94ED097AD4ED0A7A77EEC77AA0EE7D
:10278000277AB0EE470A0BF08DFD84ED0B0A10BDE1
:1027900090ED0B0A10BD00BFB7EE007A0122034690
:1027A000C7EE007A70B4002683B0C1F30725002479
:1027B000ADF80410C660417010449D70DC701A7052
:1027C0009A809A71C3ED027A03B070BC00F06EBDBE
:1027D000704700BF012910B506D0022915D051B1AC
:1027E000BDE8104005F0B2BC0A463448344909F04F
:1027F000D3FFE8B1FEE7334B0A46334C3349344844
:102800001C6009F0C9FF68B1FEE701222C492B4882
:1028100009F0C2FF00B1FEE72E49284809F0DEFFAB
:10282000C0B1FEE72B492A4809F0D8FF60B1FEE7A6
:102830002849224809F0D2FF00B1FEE726491F4887
:1028400009F076FF08B3FEE72449214809F070FF3C
:10285000A8B1FEE72049194809F06AFF00B1FEE778
:10286000164809F0D1FF48B9164B0246164C1749D5
:1028700017481C6009F090FF68B1FEE7FEE71448B6
:1028800009F0C2FF0028ABD0FEE70C4809F0BCFFFE
:102890000028A5D0FEE70F490D4809F09FFF00B1C1
:1028A000FEE70E490A4809F043FF00B1FEE7084879
:1028B00009F0AAFF002893D0FEE700BF30B106243C
:1028C00058000024CCB30624D12700083C00002483
:1028D00094AE0624CC0000241C0000240C0000242C
:1028E00010B50B4B012A0B4C08461960216006D02D
:1028F000022A01D03AB110BD01F02EFF2068BDE8D8
:10290000104001F02FBFBDE8104001F025BF00BF0F
:10291000CCB30624D0B30624014804F0F9BE00BFAE
:1029200034DF0624014804F0F3BE00BF34DF062480
:10293000014804F0EDBE00BF34DF0624014804F076
:10294000E7BE00BF3CE30624014804F0E1BE00BF3F
:102950003CE30624014804F0DBBE00BF3CE3062450
:1029600082B000230322ADF80410BDF80410827079
:1029700001800374C37002B0704700BF70B483B0AD
:102980000325082A06ACADF804108570114634F80A
:10299000046B28BF0821ADF80030042ABDF80430CC
:1029A0002488BDF8005003804FF000030681858025
:1029B00084810174C37008D8022A10D802D1012280
:1029C000C371827103B070BC70470122C371C372BE
:1029D000C37382718272827303B070BC704701222C
:1029E000C371C3728271827203B070BC704700BF42
:1029F0002DE9F04F0026DC4CDC4F964642608FB04C
:102A0000037007F1380284F8FCE08446A4F80961F9
:102A1000C4F8FD60C4F80161C4F80561BE610396A5
:102A20000696C7E90066C7E90266C7E90466436817
:102A3000CDE90466C4E94A72CDE90766CDE90966C5
:102A4000CDE90B66002B00F06B810D460868A046AF
:102A50004968EB68AA683E80A8E80F002B7C88F8DC
:102A600000302B7C84F8FD30DCF80430012B40F280
:102A700057812B467E8053F8118F58689968DA6821
:102A8000C4F81180C4F81500C4F81910C4F81D204A
:102A90001B7C84F8213095F8213084F8FE30DCF876
:102AA0000430022B40F23C812B46BE8053F8228F2B
:102AB00058689968DA68C4F82280C4F82600C4F817
:102AC0002A10C4F82E201B7C84F8323095F832305E
:102AD00084F8FF30DCF80430032B40F221812B46D0
:102AE000FE8053F8338F58689968DA68C4F83380E9
:102AF000C4F83700C4F83B10C4F83F201B7C84F8AE
:102B0000433095F8433084F80031DCF80430042B6E
:102B100040F20681A94604F144083E8159F8440F69
:102B2000D9F80C30D9F80410D9F80820A8E80F001B
:102B300099F8103088F8003095F8543084F8013155
:102B4000DCF80430052B40F2EB802B467E8153F8F5
:102B5000558F58689968DA68C4F85580C4F85900E8
:102B6000C4F85D10C4F861201B7C84F8653095F8CA
:102B7000653084F80231DCF80430062B40F2D08056
:102B80002B46BE8153F8668F58689968DA68C4F896
:102B90006680C4F86A00C4F86E10C4F872201B7C0A
:102BA00084F8763095F8763084F80331DCF8043018
:102BB000072B40F2B5802B46FE8153F8778F58687B
:102BC0009968DA68C4F87780C4F87B00C4F87F108D
:102BD000C4F883201B7C84F8873095F8873084F80C
:102BE0000431DCF80430082B40F29A80A94604F145
:102BF00088083E8259F8880FD9F80C30D9F80410AB
:102C0000D9F80820A8E80F0099F8103088F80030AB
:102C100095F8983084F80531DCF80430092B7FD919
:102C20002B4608F101064FF0000A53F8998FA7F8D8
:102C300012A058689968DA68C4F899807060B16029
:102C4000F2601B7C337495F8A93084F80631DCF807
:102C500004300A2B64D92B46A7F814A053F8AA8F86
:102C600058689968DA68C4F8AA80C6F81500C6F8EA
:102C70001910C6F81D201B7C86F8213095F8BA3053
:102C800084F80731DCF804300B2B49D92B46A7F820
:102C900016A053F8BB8F58689968DA68C4F8BB80EF
:102CA000C6F82600C6F82A10C6F82E201B7C86F827
:102CB000323095F8CB3084F80831DCF804300C2B36
:102CC0002ED9A94606F13308A7F818A059F8CC0F59
:102CD000D9F80C30D9F80410D9F80820A8E80F006A
:102CE00099F8103088F8003095F8DC3084F8093114
:102CF000DCF804300D2B13D92B46A7F81AA053F893
:102D0000DD7F58689968DA68C4F8DD70B064F164F2
:102D100032651B7C86F8543095F8ED3084F80A3122
:102D20005FFA8EF1124D4FF480209CF800200023B2
:102D30000826C4F848110121C4F830514FF48075B9
:102D4000C4F834010320C4F8383184F84C31A4F8B5
:102D50004451C4F85C01C4E95533C4E95833C4E9AB
:102D60004F16AAB106E000BFD4B3062408210030F4
:102D700000200240013A84F86811C4E95D31082A54
:102D800008D8DFE802F083888D92979CA1A7AE0057
:102D900084F86821804802F047FD034608B1FFBE71
:102DA000FEE703A97C48039302F09AFE054600283B
:102DB00040F0EB8040F2FF7302220420002184F8EF
:102DC0000C52CDE9082394F8FC30CDE90A01002B20
:102DD00000F0D8800627DFF8F8B1DFF8F8A121E08D
:102DE000022B00F0A980012B40F0B28099F801304D
:102DF000012B00F0C180002B0CBF5346002306A915
:102E000065480693079702F033F9002840F0B28036
:102E1000013594F8FC30EDB2AB4240F2B3805F4B29
:102E200053F825702EB206EB061604EB0609484649
:102E300000F03CFA05EB051323441B7C042B00F344
:102E40009F80022B00F39A8052D06219002182F8F1
:102E5000EE10002B50D1A35D002BC1D199F80130A9
:102E6000062B00F08380072B7ED0022B7AD0032B19
:102E700076D0002B7CD0012B00F08980042B00F051
:102E80008880052B464B18BF0023B8E70323402258
:102E9000C4E95B327EE707236022C4E95B3279E74D
:102EA0000F238022C4E95B3274E71F23A022C4E908
:102EB0005B326FE73F23C022C4E95B326AE77F23BE
:102EC000E022C4E95B3265E7FF234FF48072C4E976
:102ED0005B325FE740F2FF134FF49072C4E95B325C
:102EE00058E740F2FF334FF4A072C4E95B3251E778
:102EF0000123621982F8EE306319012193F8EE2064
:102F000084F80C12002AA6D006F104081A46002301
:102F1000009701962F46A0441D46164640460135AF
:102F200000F0C4F996F8EE3008F10408AB42F5DC85
:102F30003D46DDE900768EE799F80130042B0DD08F
:102F4000052B09D033B1012B164B18BF002356E7D0
:102F5000002354E7144B52E7144B50E7144B4EE751
:102F6000144B4CE7144B4AE7144B48E7144B46E725
:102F7000144B44E7FFBEFEE75B4640E70223B8E799
:102F80000323B6E70FB0BDE8F08FFFBEFEE70E4BA0
:102F900035E70E4B33E700BF04B50624901801084F
:102FA0000000B84F0008302E0004002A00018021E4
:102FB0001000C0100080F03E0040C03A8000501D5C
:102FC0000800900C00002143000052470000844B91
:102FD0002000F0140002B02510B50B4C40F2FF7237
:102FE0004FF0011104F5987002F028FD94F80C32AE
:102FF00094F8FC2003B15200D4F828110348BDE82E
:10300000104002F089BA00BFD4B3062404B50624E8
:10301000034B0D29D3F8280198BF00EB41007047FE
:10302000D4B30624054B0D29D3F82C0103D8C1EBEA
:10303000C10100EB411000EB02107047D4B306242D
:103040001E4B02689A4200D070471D4B4FF48061BE
:10305000D3F8D82070B542F020021A4C054609205A
:10306000C4F8A4114FF40061C4F8980182B0C3F809
:10307000D82004F5CA76D3F8D8204FF4005312486C
:1030800002F02002C4F8A811C4F8AC314FF48071EA
:103090000023C4F8940101923046019AC4F8B0119B
:1030A000C4E96733C4E96D3302F0F2FF08B1FFBE33
:1030B000FEE7EE64C4F8CC5102B070BD00200240BF
:1030C00000440258D4B3062440000240014803F0F3
:1030D000D1BA00BF68B5062402682DE9F84F2A4B23
:1030E0009A4201D0BDE8F88FDFF8A09099F8FC2053
:1030F000002AF7D0002409F1040609F5867509F1C4
:10310000FC07A04616E05FFA83FA03F0010117F806
:103110000FBC304600F0F6F8301DBBF1010FCAF3CA
:10312000400125D899F8FC20013411360235A3B2AC
:103130009A42D7D917F8011FC4EBC40C0029F3D069
:10314000D9F828210021D9F82C3128788A4632F87C
:1031500014E003EB4C13020123F802E02B88013347
:103160009BB22B803A789A42CDD8A5F80080CEE762
:1031700000F0C8F8BBF1020F06F10800CAF38001A5
:10318000D0D000F0BFF8CDE700200240D4B3062431
:1031900070B5184D8AB00C462B7E68619BB100203B
:1031A00002210026002200230496CDE90001CDE98A
:1031B0000223C4B1032C16D004F0FD03012B0AD066
:1031C0006C760AB070BD0C4B28462B6002F0C2FD35
:1031D00001232B76E3E710226946064802F0D0FD72
:1031E0006C760AB070BD00226946024802F0C8FD44
:1031F000E2E700BFE4B5062400740040284B0268F3
:103200009A4200D07047274B0020D3F8E81030B521
:1032100041F00051244C89B00325627EC3F8E810C8
:10322000D3F8E81001F0005101910199D3F8E010B2
:1032300041F00101C3F8E010D3F8E030049503F049
:10324000010305900293029B3AB1AA4205D002F015
:10325000FD02012A13D009B030BD65690235284648
:1032600001F028FE034628461D4601F02BFE0346CA
:1032700003A92846039303F05DFD627EE7E76469D6
:103280000434204601F016FE034620461C4601F099
:1032900019FE034603A92046039303F04BFDDAE72A
:1032A0000074004000440258E4B5062410B5837849
:1032B00086B00446022B22D0032B1ED0012B1CD03B
:1032C00000230293E378012B15D0022B13D00023A7
:1032D000039300232046049301F0ECFD03462046AF
:1032E0001C4601F0EFFD01A903462046019303F0BF
:1032F00021FD06B010BD0393EBE70293E2E7112333
:103300000293DFE770B506460D4601F0D3FD044693
:10331000304601F0D7FD2A1E0146204618BF012283
:10332000BDE8704003F0F8BE70B5122286B00023ED
:10333000CDE9022302680493032A01D804230593EC
:10334000061D841D304601F0B5FD0546304601F0EE
:10335000B9FD034601A92846019303F0EBFC204682
:1033600001F0A8FD034620461C4601F0ABFD01A973
:1033700003462046019303F0DDFC06B070BD00BF9C
:10338000634A0368934210B58CB028D0614A9342D7
:1033900058D0614A934200F09480604A934201D031
:1033A0000CB010BD5E4C5F48D4F8E03043F002032F
:1033B000C4F8E030D4F8E03003F002030A930A9B2B
:1033C000FFF7B2FFD4F8F43043F08003C4F8F430D0
:1033D000D4F8F43003F080030B930B9BE0E7504CE0
:1033E0005148D4F8E03043F00203C4F8E030D4F898
:1033F000E03003F002030193019BFFF795FFD4F83F
:10340000E83000221F2043F400131146C4F8E830CE
:10341000D4F8E83003F400130293029BD4F8D830B8
:1034200043F00103C4F8D830D4F8D83003F00103D6
:103430000393039B02F0CAFB1F200CB0BDE81040B1
:1034400002F0FEBB364C3948D4F8E03043F080033C
:10345000C4F8E030D4F8E03003F080030493049B18
:10346000D4F8E03043F00203C4F8E030D4F8E030A0
:1034700003F002030593059BFFF756FFD4F8E830ED
:103480000022212043F480031146C4F8E830D4F828
:10349000E83003F480030693069BD4F8D83043F059
:1034A0000103C4F8D830D4F8D83003F001030793EF
:1034B000079B02F08BFB21200CB0BDE8104002F00E
:1034C000BFBB1B48FFF730FF154B00224820D3F845
:1034D000E840114644F40004C3F8E840D3F8E8405B
:1034E00004F400040894089CD3F8D84044F0010484
:1034F000C3F8D840D3F8D83003F001030993099BEF
:1035000002F064FB48200CB0BDE8104002F098BB0C
:103510000054004000580040005C0040001C00586F
:1035200000440258B0B8062440B6062410B706245A
:10353000E0B706242DE9F04387B00024174D01AF12
:1035400001940394AC46ADF804403E46ADF80C40FF
:103550000494B64602940FCF019405F11407B460A9
:103560002835ADF80440ADF80C40ACE80F000FCEA4
:10357000CCF800404FF0FF0C019403940FC7084BA8
:103580003C6083F800C0ADF80440ADF80C40BEE8E4
:103590000F000FC52C6007B0BDE8F08300B606240D
:1035A0003CB60624064B1A78120600D570471878E8
:1035B000D022044B40B202FB00300C3003F05AB86A
:1035C0003CB6062440B60624014803F089BF00BF7C
:1035D000C4B60624014803F083BF00BF94B7062495
:1035E000014803F07DBF00BF64B80624F0B50C6845
:1035F000D025284E85B005FB04F5032C06EB050706
:10360000076028DC244B0DF1100C07C987E8070080
:103610000FCB0CE90F00BB680CEB8402012B52F8B6
:10362000102CC7F8842030D0022B2AD02BB305F100
:103630008400D0230022012103FB04633518C3E971
:1036400023212846C3F8A420C3E92522C3E9272261
:1036500003F018FE10B1012005B0F0BD0146284668
:1036600003F04AFF0028F6D10146284603F070FF18
:10367000003818BF012005B0F0BD084BC7F88830EE
:10368000D5E7074BC7F88830D1E7064BC7F8883035
:10369000CDE700BF40B60624BC1701088A62E030BF
:1036A0001A0980103211D02070B5056884B00C461C
:1036B0008435089E2846CDE9022303F019FF20280F
:1036C000DDE90223F6D161002846009689B203F0B5
:1036D0002DFE003818BF012004B070BD2DE9F04F59
:1036E000A44C0346ABB0204623655F7893F8008076
:1036F00004F08AFEE8B9012F4FF001059E49034608
:1037000014BF4FF480124FF40002E060A560C4E9DA
:10371000001592FAA2F2B2FA82F24FF48076E061DA
:103720002046013A2362C4E9042604F001FE034660
:1037300018B101202BB0BDE8F08F4FF0660C41F2BC
:10374000883220460EA91496179313931B93CDF835
:1037500038C0CDE91533CDE9193304F073FE0028E4
:10376000E7D1992341F288320EA920460E9304F046
:1037700069FE0028DDD14FF0000B4FF0010C4FF037
:10378000050A4FF08079249008AA21901CA929905D
:1037900041F28833CDF870A0CDF89490CDE908BC03
:1037A0004FF0100B4FF0010CCDE90ABC4FF0000BAD
:1037B0004FF4800CCDE92260CDE927002046CDE909
:1037C0000CBC04F0ABFF0028B3D1ADF80800139097
:1037D000CDE91460CDE91609CDE91850CDE91A00FC
:1037E000002F00F0CB80F023ADF80830C02341F269
:1037F00088320EA95F480E9304F024FE002898D169
:1038000041F288325B4802A904F086FE0446002893
:103810008FD1002601274FF480754FF080794FF04B
:10382000000A4FF4800B219441F28833299408AAAE
:103830001CA950482295CDF89490CDE90867CDE9B0
:10384000234410260127CDE927440524CDE90A6742
:103850001C94CDE90CAB04F061FF00287FF469AF44
:10386000012406238DF8070041F2883213901CA929
:103870001B90219029900E941C93CDE91450CDE912
:103880001609CDE91900CDE92250CDE92400CDE992
:103890002700384804F0D6FD00287FF44AAF1026F0
:1038A0000127052041F2883308AA1CA91C90314841
:1038B000CDF89490CDE90A6702260227CDE90CAB3A
:1038C000CDE9086704F02AFF00287FF432AF41F207
:1038D00088320EA9274804F0B5FD00287FF429AFEF
:1038E000402341F288320DF1070122488DF807305C
:1038F00004F012FE00287FF41CAF102601270520DB
:1039000002AA41F288330EA90E901A48CDF85C90B5
:10391000CDE9046740264027CDE906ABCDE9026733
:1039200004F0FCFE064600287FF403AF2295002534
:1039300021960520299601271C9008AA41F2883378
:103940001CA90C48CDF89490CDE92366CDE92766F3
:103950000126CDE908561026CDE90CABCDE90A6762
:1039600004F0DCFE00287FF4E4AEB8F1000F50D084
:103970000020DFE680B9062400500052612341F2A6
:1039800088320EA920460E9304F05CFD00287FF4D7
:10399000D0AE41F2883202A9204604F03BFE002856
:1039A0007FF4C7AEBDF808300625259041F2883275
:1039B00023F07803219029901CA943F0400322961C
:1039C0001C95ADF80830CDE92300CDE9270020464D
:1039D00004F038FD00287FF4ACAE10260127204605
:1039E0000225022441F2883308AA1CA9CDF870A050
:1039F000CDF89490CDE90A6700264FF48007CDE911
:103A00000845CDE90C6704F089FE00283FF4EEAECE
:103A10008FE6EB24A0264FF4005706251C940024C3
:103A20004FF0805000234FF480784FF44069299084
:103A30000EAA1CA90C48CDE91E67CDE920454FF41C
:103A400040464FF0407700240025CDE92733CDE9EB
:103A50002289CDE92467CDE90E4504F0D3FE003874
:103A600018BF012066E600BF80B906243E4B0268FD
:103A70002DE9F0479A428CB04FF00005CDE907558B
:103A8000CDE909550B9502D00CB0BDE8F087374B56
:103A90000226374905AFD3F8D420B146DFF8D4A0C9
:103AA0004FF0030842F48042C3F8D420D3F8D42066
:103AB00002F480420092009AD3F8E02042F04002E3
:103AC000C3F8E020D3F8E02002F040020192019A0E
:103AD000D3F8E02042F02002C3F8E020D3F8E02041
:103AE00002F020020292029AD3F8E02042F0100283
:103AF000C3F8E020D3F8E02002F010020392039A0A
:103B0000D3F8E0203243C3F8E020D3F8E03033406C
:103B10000493049B03C90590ADF81810DAF85040DF
:103B200034440236204601F0C5F9034620461C46BF
:103B300001F0C8F917F8013B024607A920460B938C
:103B4000CDE90729CDE9095803F0F4F80E2EE5D1A7
:103B500000225C20114602F039F85C2002F070F877
:103B60000CB0BDE8F08700BF00500052004402587E
:103B7000D018010880B90624124B02689A4200D07E
:103B80007047114AD2F8D43070B523F4804302252F
:103B90000E4EC2F8D430346D2C440235204601F06C
:103BA00089F9034620461C4601F08CF9014620465F
:103BB00003F0E4F90E2DEED15C20BDE8704002F078
:103BC0004DB800BF005000520044025880B906248E
:103BD000014804F09FBE00BF80B90624184BF0B521
:103BE000197983B0012929D00022114600241548F3
:103BF00002230125144F4BF6803601920091076095
:103C00000662C461114EC460C0E90135C0E90544D3
:103C1000C0E90B4406F0F6FE0D4802234461C4617E
:103C2000C46044630660DDE90012C0E90154C0E9E4
:103C30000B4403B0BDE8F04006F0E4BE0222D5E735
:103C4000DCB90624FCBB0624045C0140245C014072
:103C5000ECBA062470B5254D82B0E978012936D03A
:103C600000226B7A1146002B35D0012B3AD16B79AB
:103C70001F48002B0CBF03230223436000244BF694
:103C80008036022306628460C461C460C0E90544D2
:103C9000C0E90B441648CDE9001206F0B3FEEB79FB
:103CA00014480125A3424FF0020344610CBF0326D0
:103CB0000226C4614660C46044638560DDE9001289
:103CC000C0E90B4402B0BDE8704006F09BBE6B7AC1
:103CD0000222002BC9D16B790548B3FA83F35B0943
:103CE0004360CBE7024801234360C7E7DCB9062401
:103CF00094BE062494BC0624F8B5194F044600F17E
:103D0000200C3E462068103454F80C1C354654F8FC
:103D1000082C103654F8043C64450FC5F2D12378C2
:103D2000104A3370104C11493B78114D1460012B2F
:103D3000104804F58064104A0D6010490460116059
:103D400005D0022B01D033B1F8BDFFF783FFBDE8EA
:103D5000F840FFF743BFBDE8F840FFF77BBF00BF67
:103D6000DCB9062494BE06240458014094BC062401
:103D700024580140FCBB0624ECBA0624245C014014
:103D8000B14BD3F8E02042F010022DE9F04FC3F818
:103D9000E02093B0D3F8E0200446AC4D02F01002CE
:103DA0000092009AD3F8E02042F00202C3F8E0202B
:103DB000D3F8E02002F002020192019AD3F8E02049
:103DC00042F04002C3F8E020D3F8E02002F04002C5
:103DD0000292029AD3F8E02042F00802C3F8E020F1
:103DE000D3F8E02002F008020392039AD3F8E0200F
:103DF00042F00402C3F8E020D3F8E02002F004020D
:103E00000492049AD3F8E02042F00102C3F8E020C3
:103E1000D3F8E02002F001020592059AD3F8E020E1
:103E200042F48072C3F8E020D3F8E010026801F495
:103E30008071AA4206910699D3F8E01041F0800102
:103E4000C3F8E010D3F8E01001F080010791079962
:103E5000D3F8E01041F02001C3F8E010D3F8E010EF
:103E600001F02001089108990CD0794B9A4200F09A
:103E70000781784B9A423AD0774B9A4275D013B06B
:103E8000BDE8F08F754A1168002900F06E810025A9
:103E9000DFF8E89101310DF1340809EB450A2F46AE
:103EA0005FFA85FB1160504615B96D4B597AA9B977
:103EB00001F000F80646504601F004F802230146DE
:103EC000062230461192CDE90D134146CDE90F7718
:103ED00002F030FFBBF1040F00F00E81013509EB59
:103EE000450A5FFA85FB5046002DDED0E0E75D4BCA
:103EF0001A6862B95449D1F8F00040F40000C1F8E2
:103F0000F000D1F8F01001F400010B910B996168F9
:103F10000132554D4FF4804021F002011A60534A9E
:103F20004FF4805301294FF059072A604FF48071F4
:103F30000CBF002240226B614FF480660023AA6010
:103F40004FF40032A8612846EB606B626F602E610F
:103F5000C5E9071202F09CF822683F4BC4F8845070
:103F60009A42AC63C4F8805089D13E4B1A68002A4B
:103F700000F0ED8000253E4E01320DF13408A946D7
:103F80004FF0020A30465FFA85FB1A60CDB9344B18
:103F90009B7A7BB900F08EFF0746304600F092FF17
:103FA0000A230D901095CDE90EA538464146119390
:103FB00002F0C0FE013502365FFA85FB3046002D67
:103FC000E5D000F077FF0746304600F07BFFBBF1FD
:103FD000020F02464FF00A0341463846CDE90D2A4A
:103FE000CDE90F9900F0B180119302F0A3FEBBF16F
:103FF000040FDFD163685A221E4D4FF4806623F010
:1040000002031D496A604FF48052012B4FF4804037
:1040100029604FF480710CBF00234023A86128461B
:10402000AB600023C5E904624FF40032EB606B62C1
:10403000C5E9071202F02CF8C4F88450AC63C4F848
:10404000805013B0BDE8F08F00440258045801407E
:1040500024580140045C0140245C0140D4B906248A
:10406000DCB90624D8B906241CBE06245800024038
:10407000F3B9062484BB062470000240E9B9062483
:10408000404A136863B94049D1F8F00040F4800019
:10409000C1F8F000D1F8F01001F480010A910A99FA
:1040A00061680133394D4FF4804021F00201136003
:1040B000374A4FF4805301294FF058072A604FF4D4
:1040C00080710CBF002240226B614FF48066002398
:1040D000AA604FF40032A86128466F602E61EB6041
:1040E0006B62C5E9071201F0D3FF2268C4F884505F
:1040F000AC63C4F88050BCE663685722254D4FF48A
:10410000806623F0020324496A604FF48052012B39
:104110004FF4804029604FF480710CBF002340238E
:10412000A8612846AB600023C5E904624FF4003261
:10413000EB606B62C5E9071201F0AAFF2268C4F8C0
:104140008450AC63C4F880508FE608232DE70E49F5
:10415000D1F8F00040F40000C1F8F000D1F8F01000
:1041600001F400010C910C9904E7D3F8F00040F43D
:104170008000C3F8F000D3F8F03003F48003099313
:10418000099B84E6D4B9062400440258A4BD062441
:10419000280002402CBD06241000024038B5134808
:1041A0004FF48002124B4FF4003507244FF080414A
:1041B0000360002342604FF0005241638365C0E911
:1041C0000254C0E90433C0E90833C0E90A33C0E946
:1041D0000E33C0E91033C0E91233C0E91433C0E92B
:1041E000062206F02FFF00B1FFBE38BD00BA06243C
:1041F000003001406423024892B206F0D7BF00BFEE
:1042000000BA0624324A0023016810B5914288B0F2
:10421000049303930793CDE9053301D008B010BD93
:104220002C4B0446D3F8F02042F48052C3F8F0201F
:10423000D3F8F02002F480520092009AD3F8E020E4
:1042400042F00202C3F8E020D3F8E02002F00202BC
:104250000192019AD3F8E02042F04002C3F8E02036
:10426000D3F8E030826803F04003B2F5003F0293D8
:10427000029B29D0B2F5802F23D110230393022073
:104280000023052203A9049013480792CDE90533C2
:1042900002F050FDA3694FF40062B3F1806F039206
:1042A00002D04FF44063039300230522022403A9A4
:1042B0000A48CDE90443CDE9063202F03BFD08B0DF
:1042C00010BD30230393DAE720230393D7E700BF21
:1042D00000300140004402580004025800180258FF
:1042E000F0B5194BC827194E02224FF0804403F154
:1042F0000C050021002089B09A60DC608022002437
:104300005A620194C3E900674FF0FF360027C3E902
:104310000401C3E906672846CDE90444CDE9064413
:10432000CDE9024407F0D8F84FF4805304A9284699
:10433000049307F085F901A928460194039407F036
:104340003DFA09B0F0BD00BF88BA0624400D030055
:10435000014807F059B900BF94BA0624054A13680A
:10436000D26803FB00F0516A536A5B1A9842FBD88B
:10437000704700BF88BA06240368B3F1804F00D0AD
:104380007047084B82B0D3F8E82042F00102C3F82E
:10439000E820D3F8E83003F001030193019B02B059
:1043A000704700BF004402582DE9F04FCFB04C22B7
:1043B00000210AA80AF0B4FC2022002102A80AF079
:1043C000AFFCBC2200211EA80AF0AAFC022003F0C8
:1043D00097FE514A0021514B01911846D16A21F0B4
:1043E0000101D162D26A02F0010201929A6942F49B
:1043F00040429A619B6903F440430193019B8369A6
:104400009B04FCD5464A022421204FF48031936A54
:104410000126042523F0030323439362C8230822C3
:104420001096169300231794199415951C93CDE9B3
:104430000A0105210AA8CDE913441891CDE91A23F0
:1044400004F070FB00B1FEE73F260327002208239B
:1044500002A82146CDE90267CDE904234026402386
:104460004FF480624027CDE90823CDE9066704F0C8
:1044700095FE034600B1FEE780220A2602270025AA
:1044800034924FF4807233948024439200224FF090
:1044900054084FF008091EA8CDE93B334FF4805370
:1044A00035934FF4803346930623CDE92267CDE957
:1044B000244540F22716402704242025CDE9262351
:1044C0004FF480620023CDE92867CDE92A45CDE984
:1044D0002C230FF23C0BDBE900AB00260227002463
:1044E000002500224FF44013CDE91EABCDE9208911
:1044F000CDE92E67CDE93045CDE93E2305F076F8CC
:1045000000B1FEE703F022FE4FB0BDE8F08F00BF20
:1045100009130F030400000000040058004802586B
:104520000044025808B500F02BFDBDE8084001F03A
:104530000DBC00BFFFBE704770B584B0012500F010
:10454000F1FC0024FFF730FF01F0B4FB4FF04051C5
:104550002F4A4FF4807368460191ADF80050CDE9C1
:10456000022301F0C9FB40F2011119224FF0404330
:104570006846ADF80E108DF8082001938DF80150B3
:104580008DF80D408DF80A4001F0B6FB042001F0D3
:10459000A1FB08F06BFDFEF7CDFFBFF34F8FBFF31C
:1045A0006F8F1C4BC3F85042BFF34F8FBFF36F8F19
:1045B0005A6942F400325A61BFF34F8FBFF36F8FD5
:1045C000C3F88440BFF34F8FD3F8801043F6E074F4
:1045D000C1F34E32C1F3C901520102EA0405084693
:1045E00045EA80760138C3F86062461CF8D1203A6B
:1045F00012F1200FF1D1BFF34F8F5A6942F480328C
:104600005A61BFF34F8FBFF36F8F04B070BD00BF0F
:104610000D00010300ED00E000F0C4BC704700BFD6
:104620000020704770B50446074E0D4630462146BF
:1046300008F090F8304608F095F8044B20462946DB
:104640001B689847002070BD94AE06242CDF06241A
:1046500070B50446074E0D463046214608F07AF8FC
:10466000304608F07FF8044B204629461B689847DF
:10467000002070BD30B1062430DF062410B5074C91
:1046800000220749204608F05BF82046054908F05B
:1046900061F8054B054A00201A6010BD94AE06244F
:1046A0002CCF06242CC706242CDF06241D46000828
:1046B00010B5074C00220749204608F041F8204673
:1046C000054908F047F8054B054A00201A6010BD5F
:1046D00030B106242CD706242CBF062430DF062454
:1046E0001D46000820280AD0212806D10A4B186848
:1046F0009A889B7908608A808B710020704710B47B
:10470000054B08688C888A79186000209C809A7113
:104710005DF8044B704700BF2C00002420280AD00D
:10472000212806D10A4B18689A889B7908608A80EC
:104730008B710020704710B4054B08688C888A790B
:10474000186000209C809A715DF8044B704700BF90
:104750003400002400207047014B1860704700BFF0
:104760002CDF0624014B1860704700BF30DF0624A1
:10477000524A03682DE9F04393428BB04FF0000496
:10478000CDE90444CDE90644089405D04C4A93424F
:104790004FD00BB0BDE8F0834A4D4FF4C05002211A
:1047A0000A22D5F8E0300026002743F00103C5F8BF
:1047B000E030D5F8E030089203F00103CDE90401C0
:1047C000009304A94048009BCDE9066702F0B2FAC5
:1047D0004FF40072002304A93B480694CDE904235A
:1047E00002F0A8FAD5F8D8302246214643F00063FB
:1047F0006220C5F8D830D5F8D83003F000630193B3
:10480000019B01F0E3F9622001F01AFA22462146E9
:10481000632001F0DBF9632001F012FA2246214601
:10482000652001F0D3F9652001F00AFA0BB0BDE86C
:10483000F083244D0C224FF440460227D5F8E03097
:104840004FF000084FF0000904A943F002031F488D
:10485000C5F8E030D5F8E030089203F00203029387
:10486000029BCDE90467CDE9068902F063FAD5F829
:10487000D8302246214643F000734A20C5F8D8308C
:10488000D5F8D83003F000730393039B01F09EF931
:104890004A2001F0D5F9224621464B2001F096F935
:1048A0004B2001F0CDF9224621464D2001F08EF932
:1048B0004D2001F0C5F90BB0BDE8F08300000840C1
:1048C000000004400044025800000258000402584E
:1048D00000F57171D0F8040407F0AEBFC1EBC1035D
:1048E00000EB8303D0F80404D3F8082207F0D2BF0A
:1048F000C1EBC10300EB8303D0F804049A6C08F009
:1049000007B800BFD0F8040408F09CB8C16810B51F
:10491000044619B1022900D0FEE70121D4F80404AD
:1049200008F07AF8D4F80404BDE8104008F04CB858
:1049300010B50446D0F8040408F072F82268D2F8E2
:10494000003E43F00103C2F8003E236A23B1034A4C
:10495000136943F00603136110BD00BF00ED00E0D2
:10496000D0F8040408F066B8D0F8040408F07AB867
:10497000D0F8040408F074B8D0F8040408F074B84F
:10498000D0F8040408F072B8F8B5057806461DB1F1
:10499000012D1AD00020F8BD2A4C022309222A49F1
:1049A0000127C4F80404C0F89842204625616562D6
:1049B000256321606260E360A361C4E90755C4E92F
:1049C0000A7702F0EFFDD8B1FEE7204C0023022267
:1049D00009211F4F2046C4F80464C6F89842A56216
:1049E000E260A261236163626363C4E90071C4E9A8
:1049F0000733C4E90B3302F0D5FD064680B1FEE76C
:104A00008021204603F05EFB29464022204603F029
:104A100035FB39462046802203F030FB3578B7E776
:104A20004FF40071204603F04DFB314680222046B2
:104A300003F024FB294620464FF4BA7203F01EFB14
:104A4000A8E700BF3CE306240000084034DF06244A
:104A500000000440D0F8980208B502F039FE03289F
:104A600002D8024B185C08BD022008BDD818010806
:104A700010B51446D0F898021A46234603F0BAF946
:104A8000032802D8024B185C10BD022010BD00BFE5
:104A9000D8180108D0F8980208B503F0E5F9032802
:104AA00002D8024B185C08BD022008BDD8180108C6
:104AB000D0F8980208B503F061FA032802D8024B37
:104AC000185C08BD022008BDD8180108D0F898026B
:104AD00008B503F097FA032802D8024B185C08BD0A
:104AE000022008BDD81801080A06D0F8983206D46A
:104AF000C1EBC10103EB810191F8FE01704701F0A8
:104B00007F01C1EBC10103EB810191F83E007047C9
:104B1000D0F8980208B503F059F9032802D8024BDF
:104B2000185C08BD022008BDD8180108D0F898020A
:104B300008B503F0FFF9032802D8024B185C08BD42
:104B4000022008BDD8180108D0F8980208B503F073
:104B5000BFF9032802D8024B185C08BD022008BD2B
:104B6000D8180108D0F8980203F0DAB912230148E6
:104B70000B80704788000024122301480B80704787
:104B800074000024042301480B8070479C0000241B
:104B900010B5044C0A460448214608F0DFF92046C7
:104BA00010BD00BF44E70624DC18010810B5044C12
:104BB0000A460448214608F0D1F9204610BD00BF3E
:104BC00044E70624EC18010810B5044C0A460448D2
:104BD000214608F0C3F9204610BD00BF44E7062473
:104BE0000019010810B5044C0A460448214608F093
:104BF000B5F9204610BD00BF44E706240C19010892
:104C000010B5044C0A460448214608F0A7F920468E
:104C100010BD00BF44E706241C1901080423014805
:104C20000B8070479C000024424A1A20424B1268B5
:104C30001B680880D31801D1404870471A0FB3F1A0
:104C4000204F3F492CBF02F1370002F130003B4AB0
:104C5000096810B49070C3F3036000240928D4706D
:104C60004FF000048CBF3730303054710024107185
:104C7000C3F30350D4710024092854724FF0000488
:104C80008CBF37303030D47200249071C3F30340AE
:104C9000547309288CBF373030301072C3F303309F
:104CA00009288CBF373030309072C3F303200928B5
:104CB0008CBF373030301073C3F3031003F00F0391
:104CC00009288CBF37303030092B90734FF000002B
:104CD00094BF30333733B1F1204FD07313744FEAA0
:104CE00011734FF000002CBF373330335074002065
:104CF0009374C1F30363D0740020092B50758CBFEB
:104D0000373330330D481375C1F30353092B8CBF70
:104D1000373330339375C1F303430021092BD17529
:104D200094BF303337331376002353765DF8044B4A
:104D3000704700BF00E8F11F08E8F11FA000002441
:104D400004E8F11F10B5044C0A460448214608F057
:104D500005F9204610BD00BF44E70624DC18010811
:104D600010B5044C0A460448214608F0F7F82046DE
:104D700010BD00BF44E706240019010810B5044C1B
:104D80000A460448214608F0E9F8204610BD00BF55
:104D900044E706240C190108424A1A20424B1268C3
:104DA0001B680880D31801D1404870471A0FB3F12F
:104DB000204F3F492CBF02F1370002F130003B4A3F
:104DC000096810B49070C3F3036000240928D470FC
:104DD0004FF000048CBF3730303054710024107114
:104DE000C3F30350D4710024092854724FF0000417
:104DF0008CBF37303030D47200249071C3F303403D
:104E0000547309288CBF373030301072C3F303302D
:104E100009288CBF373030309072C3F30320092843
:104E20008CBF373030301073C3F3031003F00F031F
:104E300009288CBF37303030092B90734FF00000B9
:104E400094BF30333733B1F1204FD07313744FEA2E
:104E500011734FF000002CBF3733303350740020F3
:104E60009374C1F30363D0740020092B50758CBF79
:104E7000373330330D481375C1F30353092B8CBFFF
:104E8000373330339375C1F303430021092BD175B8
:104E900094BF303337331376002353765DF8044BD9
:104EA000704700BF00E8F11F08E8F11FA0000024D0
:104EB00004E8F11F024B027853F82200704700BF4C
:104EC00050190108024B427833F81200704700BFB6
:104ED00030190108704700BF0F4B1B780BB9012038
:104EE000704710B504464FF47A700C4AB0FBF3F3E8
:104EF0001068B0FBF3F000F0C5FE0F2C00D808B12D
:104F0000012010BD002221464FF0FF3000F05EFE70
:104F1000034B00201C6010BDC400002404000024CA
:104F2000C800002470B5124C032000F03BFE114E67
:104F300004F094F8A26910490346C2F303220F203B
:104F40000E4D8A5C02F01F02D3403360A26902401A
:104F50008A5C02F01F02D3402B60FFF7BDFF10B147
:104F60000124204670BD0446FFF7B4FF204670BD03
:104F70000044025804000024CC1701080800002453
:104F8000034A044B11681B780B441360704700BF41
:104F9000D4BA0624C4000024014B1868704700BF2F
:104FA000D4BA062438B50446FFF7F6FF0546631C5D
:104FB00002D0044B1B781C44FFF7EEFF431BA342B7
:104FC000FAD338BDC4000024014B1868000C7047A8
:104FD0000010005C704700BF806B08B5FEF77CF8DE
:104FE00008BD00BF704700BF836B5A6D12F0500FB1
:104FF0005A6D10B51DD1196842F400725A650A68DD
:1050000012F0080FCA681BD012F4406F0DD1CA68A5
:1050100094040AD45A6D22F480725A655A6DD104F0
:1050200003D45A6D42F001025A651846FFF7D2FFC9
:1050300010BDD2060AD4DB6CBDE81040DB6C18470B
:105040009007E7D01846FFF7C5FFF1E71846FFF7CE
:10505000C9FF10BD806B08B5436D43F04003436545
:10506000836D43F004038365FFF7BCFF08BD00BFF9
:10507000F0B5002283B0019290F85020012A00F090
:105080001B81034601201A6883F850009468660764
:1050900000F189800C68C4F31305002D40F08E8068
:1050A000C4F3846C00FA0CF04C681F26D569A7097C
:1050B0003440284302F1300507F00C07A640D061C8
:1050C0000CFA04F4785920EA0600204378519068DD
:1050D000450771D4956815F0080548D10C6802F1B0
:1050E000140607208F684FEAD45CC4F304540CF014
:1050F000040C00FA04FE07FA04F4C64F5CF806003C
:1051000020EA0E0020434CF80600386800F070409A
:10511000B0F1805F00F0C880D068D66810F0100F42
:10512000486940F0E980C6F38206760000FA06F688
:105130000F69042F00F0C38002F16004086854F87E
:1051400027C000F0F8400CF0004C40EA0C0030435F
:1051500044F827000E694F7E54F82600012F20F0F6
:10516000004008BF4FF00045054344F826509068C2
:10517000C40716D4CE68086806F01807A64CD2F803
:10518000C050FC40C0F31307DFF8B8C2044025EA62
:105190000705664544EA0504C2F8C04046D0002829
:1051A00016DB002003E05A6D42F020025A6500220F
:1051B00083F8502003B0F0BD9068D8E794FAA4F5C6
:1051C000B5FA85F5C4F3846C05F01F04A0406BE7C5
:1051D00092498A4200F0B68001F580718A4200F05F
:1051E000B1808F4E8F4DA968B46801F0E076E4433A
:1051F00004F00104002C00F0B3808B4CA04200F0BE
:10520000E6808A4CA04200F01F81894CA042C8D1A0
:105210004902C6D482498A42C3D1AA68002022F03A
:10522000E072324342F48002AA60C0E7002F69D0E6
:1052300090FAA0F4B4FA84F4013404F01F04092CA9
:1052400000F2A38090FAA0F4B4FA84F490FAA0F5E6
:105250000126B5FA85F501343544A40605F01F058D
:1052600004F0F84406FA05F52C4390FAA0F0B0FAE1
:1052700080F0304400F01F0000EB400000052043A8
:10528000C70D02F11405C0F304504FF0070C07F0EE
:1052900004078E680CFA00FC7C59864024EA0C0056
:1052A0003043785108687AE7D6684869C6F38206C1
:1052B000760000FA06F63BE7022003B0F0BD106E60
:1052C0000D6800F0F840AC06B0EB856F30D0506E42
:1052D00000F0F840844226D0906E00F0F8408442FE
:1052E0002BD0D06E00F0F84084427FF440AFD06EF7
:1052F00020F00040D0663AE7760806F0080600FA8B
:1053000006F615E7800E441C04F01F06092E2DD862
:10531000A406012506EB460004F0F84405FA06F65B
:1053200000053443ABE7506E20F000405066D3E7F1
:10533000106E20F000401066C9E7906E20F000402B
:105340009066CEE73B49354E3B4C0D468968B768C1
:10535000A46801F0E0763C43E44304F0010449E72B
:105360005A6D012042F020025A6520E706EB460004
:105370000127A5061E3807FA06F605F0F8450005D0
:10538000354340F0007028437AE790FAA0F5B5FA6B
:1053900085F590FAA0F40126B4FA84F4013534447A
:1053A000AD0604F01F0405F0F84506FA04F42543A1
:1053B00090FAA0F4B4FA84F4344404F01F0404EB2B
:1053C0004404A4F11E00000540F00070DBE7080271
:1053D0003FF5E7AE12498A427FF4E3AE174AA96867
:1053E0001268174821F0E07192093143A0FB0202D4
:1053F00041F400019209A96052000192019A002A29
:105400003FF4CFAE019A013A0192019A002AF9D1F4
:10541000C7E600BF0010005CFFFF0F000020024045
:105420000060025800630258000084CB000052C79D
:105430000000B8CF002302400021024004000024F5
:10544000632D3E050000FF4711F080707FF4A9AE88
:1054500005498A427FF4A5AEAA6822F0E072324381
:1054600042F08072AA60A2E60060025803689A685F
:10547000D20701D5002070479968214A114270B5C2
:1054800004462AD199681F4A0A4042F001029A60F4
:10549000FFF782FD23681C4A0546934226D002F599
:1054A0008072934222D0194A9268164E0AE09A6896
:1054B000324042F001029A60FFF76EFD401B022865
:1054C0000BD823681A68D20717D49A68D107EED58B
:1054D000FFF762FD401B0228F3D9636D012043F002
:1054E00010036365A36D0343A36570BD084A92680A
:1054F000D006DAD0074A9342D7D1002070BD00BF52
:105500003F000080C0FFFF7F002002400063025880
:1055100000230240002102402DE9F0413B4D0446AA
:1055200000680F461646A84219D0394B984216D04B
:10553000384DAB688068420716D494F85020012A91
:1055400012D003F01F080123B8F1090F84F850307E
:105550000DD90023012084F85030BDE8F0812E4D94
:10556000AB6880684207E8D50220BDE8F08140F2D0
:10557000212323FA08F3DB4313F00105E9D1204688
:10558000FFF774FF00283AD1626D244B2568134061
:1055900043F480736365B8F1000F02D01C4B9D4249
:1055A00003D0636D23F480136365636D13F480533C
:1055B00029D0A36D23F00603A365E06C4FF0000C27
:1055C000DFF868E033463A461C21154F154EC0F807
:1055D0003CE00764C664296005F1400184F850C0CE
:1055E0006E6846F010066E6000F01CFF22680E4BDD
:1055F00091680B4043F004039360BDE8F08184F8A8
:105600005050BDE8F081A365D7E700BF00200240FD
:10561000002102400063025800230240FEF0FFFF19
:10562000D94F000855500008C0FFFF7FE94F000820
:1056300038B503689A68910702D59B68002038BD89
:105640009A68D20723D59A68044602F00D02012A0F
:1056500008D0636D012043F010036365A36D03431D
:10566000A36538BD986803210A4A024042F002024D
:105670009A601960FFF790FC054604E0FFF78CFC88
:10568000401B0228E5D823689B68DB07F6D400207E
:1056900038BD00BFC0FFFF7F38B55A4A04460368D3
:1056A000934249D002F58072934245D0564B9B6895
:1056B00013F4403F14BF01230023EBB103F088FE35
:1056C00063680546B3F5003F00F08B80B3F5403FBB
:1056D00073D0B3F5803F00F08480FFF775FC41F292
:1056E000030398421FD8494B9D4260D922689368B2
:1056F00043F48073936038BD4FF4002004F0EEFE55
:1057000063680546B3F5101F75D01DD9B3F5201F8A
:105710005BD0B3F5301FE0D1FFF756FC41F2030335
:10572000984244D92D0A3A4B9D422ED8226893685C
:1057300023F44073936038BD364B9B6813F4403FAD
:1057400014BF01230023B8E7B3F5E01F3FD004D90D
:10575000B3F5001FC1D14509BFE7B3F5801F06D0DF
:105760000AD9B3F5A01F02D0B3F5C01FB5D19B0C69
:105770005B00B5FBF3F5B0E7B3F5002FF7D023F4EA
:105780000022B2F5802FF2D0A7E7234B234A2B4407
:1057900093421ED9224B234A2B449342226893689A
:1057A0002BD823F4407343F40073936038BD226810
:1057B000936823F48073936038BD8508FFF704FC79
:1057C00041F203039842AED88DE7C50985E7050984
:1057D00083E72268936823F4407343F480739360F3
:1057E00038BD1B0CB5FBF3F5FFF7EEFB41F20303ED
:1057F000984298D877E785096FE743F44073936040
:1058000038BD00BF0020024000630258002D310166
:10581000105E5F0000230240EFA1A0FF0F5E5F005B
:10582000DF4341FF1FBCBE0070B5002382B001936F
:10583000002800F0CF80456D0446002D00F0B980AF
:10584000226893689D0003D59168704B0B4093606C
:105850009368D80015D46E4B90681B686D4D9B09FA
:105860006D49A5FB035301409B0941F080519160B4
:105870000193019B2BB1019B013B0193019B002BE9
:10588000F9D19368D90024D4636D012543F0100346
:105890006365A36D2B43A365936813F0040F636DD9
:1058A0001DD1DB061BD4636D23F4817343F0020327
:1058B00063659368DE0728D4584B9A4217D003F5E6
:1058C00080739A4213D0564B9B68D9071DD4554A12
:1058D00015E09368002513F0040F636DE1D0636D4C
:1058E000012543F010032846636502B070BD4B4AA2
:1058F0004D4B92689B681343D80706D44B4A936874
:10590000616823F47C130B439360FFF75DFB41F266
:105910000303A1689842237F51D8667D1A04206B47
:1059200042EA463202430A43012B03D1236A013B78
:1059300042EA4342636A23B103F47873A16A0B43DA
:105940001A4323683A49D86801400A43DA609A68E2
:1059500012F0040F9A681CD112071AD4D968354A7C
:10596000207D0A40E16A42EA80320A43DA6094F814
:105970003820012A3AD01A6922F001021A611A6904
:105980002046616B22F070420A431A61FFF784FEE1
:105990002368E268012A21D01A6B22F00F021A63F1
:1059A000636D284623F0030343F00103636502B0EF
:1059B00070BDFDF745FBA56584F8505040E7102900
:1059C000ABD1607D1A04216B42EA40320A4342F0B7
:1059D0001C02A9E70125284602B070BD196BA26917
:1059E00021F00F01013A0A431A63D9E71869124EF0
:1059F000D4E910210640A06C0A43E16B3243024314
:105A000042EA014242F001021A61B8E7C0FFFF5FBB
:105A100004000024632D3E05C0FFFF6F00200240FC
:105A20000060025800630258002102400023024037
:105A300003C0F0FFFCBFFFFF1EF800FCF0B50D46F1
:105A400090F8501083B00026012901963ED0012322
:105A50000446174680F85030FFF7EAFD636DE0B961
:105A60001C4E07F08042216805F480351E401A4B19
:105A70001A4F46F0020666658E68334013432B4387
:105A800043F000438B608B68002B0EDB636D23F0CB
:105A9000030343F00103636502E043F01003636511
:105AA000002384F8503003B0F0BD019B0133019313
:105AB000019BBB42E7D9636D0022012023F0120352
:105AC00084F8502043F010036365ECE7022003B034
:105AD000F0BD00BFFDEEFFFFC0FFFE3FFF955A5532
